:100000000C948D000C94BE000C94BE000C94BE00A9
:100010000C94BE000C94BE000C94BE000C94BE0068
:100020000C94BE000C94BE000C94BE000C94BE0058
:100030000C94BE000C94BE000C94BE000C94BE0048
:100040000C94BE000C94BE000C94BE000C94BE0038
:100050000C94BE000C94BE000C94BE000C94D3070C
:100060000C94BE000C9401060C9437060C94BE0050
:100070000C94BE000C94BE000C94BE000C94BE0008
:100080000C94BE000C94BE000C94BE000C94BE00F8
:100090000C94BE000C94BE000C94BE000C94BE00E8
:1000A0000C94BE000C94BE000C94BE000C94BE00D8
:1000B0000C94BE000C94BE000C94BE000C94BE00C8
:1000C0000C94BE000C94BE000C94BE000C94BE00B8
:1000D0000C94BE000C94BE000C94BE000C94BE00A8
:1000E0000C94BE000C946B060C9498060C94AA0415
:1000F0000C94B8040C94CC040C949E040C9432051B
:100100000C9458010C944C010C94DB040C94610683
:100110000C9452054C016B06580111241FBECFEF01
:10012000D1E2DEBFCDBF00E00CBF13E0A0E0B2E043
:10013000E0ECF3E100E00BBF02C007900D92AA389B
:10014000B107D9F724E0AAE8B3E001C01D92A835B1
:10015000B207E1F710E0CCE8D0E000E006C021975C
:100160000109802FFE010E94A108CA38D10780E052
:100170000807A9F70E94BE070C94CE090C94000052
:1001800026E040E052EC61E070E08EEA93E00C94EF
:100190009F058AE893E00E944104FC0183E0E43A71
:1001A000F80791F0808191819093A5038093A40337
:1001B000828193819093A7038093A6038481958184
:1001C0009093A9038093A80366E072E08EEA93E01F
:1001D0000E94D406E091A403F091A503608171818F
:1001E0004AE050E08EEA93E00E94A40763E172E0E7
:1001F0008EEA93E00E94D406E091A403F091A50357
:10020000628173814AE050E08EEA93E00E94AB077E
:1002100061E272E08EEA93E00E94D4066091A60348
:100220007091A7038EEA93E00E94E7066BE272E00A
:100230008EEA93E00E94D406E091A803F091A9030E
:10024000608170E04AE050E08EEA93E00E94A407EB
:1002500068E372E08EEA93E00E94D406E091A8037E
:10026000F091A903618170E04AE050E08EEA93E0EA
:100270000E94A40766E472E08EEA93E00E94D4062E
:10028000E091A803F091A903628170E04AE050E098
:100290008EEA93E00C94AB0784EA93E00E94530447
:1002A00088E993E00E9464018AE893E00C94640179
:1002B0008AE893E00E94E70188E993E00E94E70161
:1002C00084EA93E00C9484040F931F93CF93DF93FD
:1002D000EC0102960E9453048CE388838EE38983A9
:1002E00085E090E00E94CD078C01FC01108286E140
:1002F00090E00E94CF07F8019283818384E090E030
:100300000E94CF07F801948383831B870A878CE2BE
:1003100090E00E94CF07FC019987888784E592E0EE
:10032000918380838AE592E09383828380E692E0E2
:100330009583848386E692E0978386838CE692E0B9
:100340009187808782E792E09387828788E792E0AF
:10035000958784878EE792E09787868784E892E086
:10036000918B808B8AE892E0938B828B80E992E07C
:10037000958B848B86E992E0978B868B2CE932E013
:10038000318F208F22EA32E0338F228F958F848F36
:1003900028EA32E0378F268F2EEA32E031A320A3FD
:1003A00093A382A384EB92E095A384A38AEB92E0CB
:1003B00097A386A380EC92E091A780A786EC92E0B9
:1003C00093A782A7DF91CF911F910F910895CF93AB
:1003D000DF93EC018A859B850E944509CE01029638
:1003E000DF91CF910C948404FB01DA019B012A5E1A
:1003F0003F4F8191882351F0883241F0823231F0B1
:100400009D91891305C0E217F30799F781E00895DC
:1004100080E008959F92AF92BF92CF92DF92EF92C9
:10042000FF920F931F93CF93DF93CDB7DEB7AC97B7
:100430000FB6F894DEBF0FBECDBFCE0101967C0192
:100440008C96F7012FEF3FEF21933193E817F907CF
:10045000D9F7FB016A5E7F4F30E020E011914CEC50
:1004600052E090E080E0DA010D91AD01101309C077
:10047000D901AA0FBB1FAE0DBF1D8D939C932F5F9B
:100480003F4F01968631910571F76E177F0731F75F
:1004900010E000E0B12CA12C8AE0982EF701C19069
:1004A000D1907F0167ED72E0FAE0CF16D10450F4ED
:1004B0009A9CC0019B9C900D11245601A80EB91E58
:1004C00061EF72E08EEA93E00E94D4064AE050E0C9
:1004D000B8018EEA93E00E94A40766EE72E08EEA0D
:1004E00093E00E94D4064AE050E0B6018EEA93E021
:1004F0000E94AB070F5F1F4F0631110579F6C5014A
:10050000AC960FB6F894DEBF0FBECDBFDF91CF9192
:100510001F910F91FF90EF90DF90CF90BF90AF9021
:100520009F9008953F924F925F926F927F928F9229
:100530009F92AF92BF92CF92DF92EF92FF920F9372
:100540001F93CF93DF93EC014B018A01EE81FF8172
:1005500010821182128286E190E00E94CF077C0116
:10056000DC0190E080E020E22D93EC81FD81E80F3A
:10057000F91F2083019686319105B1F7EA85FB8545
:10058000A380B4808FEF9FEFD50111969C938E933B
:1005900013969C938E931297680110E000E07724E5
:1005A0007394F601419151916F01B401CE010E9403
:1005B000F401882341F0D5010D931C937092AA0396
:1005C000EE81FF8170820F5F1F4F0631110549F7E1
:1005D0008401912C812CD12CC12C712C612CB12C3B
:1005E000A12C512C442443943090AA03332029F1A8
:1005F00062E073E08EEA93E00E94D4064AE050E0A5
:10060000B4018EEA93E00E94AB0768E073E08EEAE3
:1006100093E00E94D406F80160818EEA93E00E9484
:10062000FE06D8018C91883291F465E173E08EEA80
:1006300093E00E94E7064092AB03BFEF8B1A9B0A40
:100640000F5F1F4FE6E18E16910471F672C089327A
:1006500061F41092AB031092AA036FE173E08EEA8B
:1006600093E00E94E706532CE8CF8091AB038823E8
:10067000A9F06AE273E08EEA93E00E94D406F801E2
:1006800060818EEA93E00E94FE06F701E60DF71DF9
:10069000D8018C918083BFEF6B1A7B0AF8018081AF
:1006A000823281F4FFEFAF1ABF0A6EE373E08EEA85
:1006B00093E00E94D406D8016C918EEA93E00E94E8
:1006C000FE06BBCFB1E0AB16B104C1F4EC81FD81F5
:1006D000EC0DFD1D80836BE473E08EEA93E00E94D5
:1006E000D406EC81FD81EC0DFD1D60818EEA93E066
:1006F0000E94FE06EFEFCE1ADE0A9FCFF2E0AF16A1
:10070000B10409F09ACF68E573E08EEA93E00E94A5
:10071000D4066C817D818EEA93E00E94E7068C818D
:100720009D81C80ED91ED6011C92EE81FF8181E009
:10073000828366E373E08EEA93E00E94D406B701F9
:100740008EEA93E00E94E706552089F0EA85FB8552
:1007500003811481B701CE010E940A02D8011396C9
:100760009C938E931297EE81FF8181E08183EA85CD
:10077000FB850380F481E02D8081918197FF03C088
:10078000AE81BF811C92FB83EA83E114F10419F06E
:10079000C7010E94D107CE010296DF91CF911F9130
:1007A0000F91FF90EF90DF90CF90BF90AF909F9010
:1007B0008F907F906F905F904F903F9008951F9320
:1007C000CF93DF93EC0190E080E0EA85FB85018028
:1007D000F281E02DE80FF91F108201968631910514
:1007E000A1F711E08EEA93E00E949E041816190604
:1007F000CCF78EEA93E00E94B804AA85BB858C935F
:100800009881891303C01093AC03ECCF99818913AD
:1008100003C01092AC03E6CFE091AD039091AC031E
:10082000992339F011960D90BC91A02DAE0FB11DFA
:100830008C93AA85BB858C918A30F9F411968D91A1
:100840009C91E80FF92FF11D10821092AD036BE619
:1008500073E08EEA93E00E94D406EA85FB8561810D
:1008600072818EEA93E00E94E706EA85FB8581812A
:100870009281DF91CF911F910895EF5FE093AD03D7
:10088000B1CF0F931F93CF93DF93EC0108851985A8
:100890000E94DF03A801BC01CE01DF91CF911F911F
:1008A0000F910C949202CF93DF93EC0184E090E0DF
:1008B0000E94CF079983888389E190E00E94CF0747
:1008C0009B838A8383E090E00E94CF079D838C8383
:1008D000E881F9818FEF9FEF9183808393838283F7
:1008E00090E080E020E2EA81FB81E80FF91F20839D
:1008F000019684319105B9F7EC81FD811082118256
:100900001282DF91CF910895CF93DF93EC0188811C
:100910009981009711F00E94D1078A819B810097ED
:1009200011F00E94D1078C819D81009721F0DF9109
:10093000CF910C94D107DF91CF910895FC01918D57
:10094000228D892F90E0805C9F4F821B91098F73CD
:1009500099270895FC01918D828D981731F0828D31
:10096000E80FF11D858D90E008958FEF9FEF0895BA
:10097000FC01918D828D981761F0A28DAE0FBF2F73
:10098000B11D5D968C91928D9F5F9F73928F90E0C9
:1009900008958FEF9FEF0895FC01538D448D252F0F
:1009A00030E0842F90E0821B930B541710F0CF9609
:1009B00008950197089581E696E0892B49F080E03B
:1009C00090E0892B29F00E94610681110E940000AD
:1009D00080E090E0892B49F080E090E0892B29F0BD
:1009E0000E94000081110E94000080E090E0892BAD
:1009F00049F080E090E0892B29F00E9400008111ED
:100A00000E94000080E090E0892B49F080E090E0B7
:100A1000892B29F00E94000081110C940000089598
:100A2000FC01A48DA80FB92FB11DA35ABF4F2C9163
:100A3000848D90E001968F739927848FA689B7895A
:100A40002C93A089B1898C91837080648C93938D51
:100A5000848D981306C00288F389E02D80818F7DF4
:100A600080830895CF93DF93EC01888D8823B9F0BC
:100A7000AA89BB89E889F9898C9185FD03C08081A9
:100A800086FD0DC00FB607FCF7CF8C9185FFF2CF26
:100A9000808185FFEDCFCE010E941005E9CFDF9167
:100AA000CF910895EF92FF920F931F93CF93DF930F
:100AB000EC0181E0888F9B8D8C8D98131AC0E8899A
:100AC000F989808185FF15C09FB7F894EE89FF8969
:100AD0006083E889F98980818370806480839FBF07
:100AE00081E090E0DF91CF911F910F91FF90EF9007
:100AF0000895F62E0B8D10E00F5F1F4F0F73112717
:100B0000E02E8C8D8E110CC00FB607FCFACFE88951
:100B1000F989808185FFF5CFCE010E941005F1CFC4
:100B2000EB8DEC0FFD2FF11DE35AFF4FF0829FB7C5
:100B3000F8940B8FEA89FB8980818062CFCFCF92B6
:100B4000DF92EF92FF921F93CF93DF93EC016A0144
:100B50007B01122FE889F98982E08083C11481EE3C
:100B6000D806E104F104A1F060E079E08DE390E0C3
:100B7000A70196010E947F082150310941095109BE
:100B80005695479537952795211580E1380798F0B8
:100B9000E889F989108260E874E88EE190E0A701A5
:100BA00096010E947F08215031094109510956954B
:100BB000479537952795EC85FD853083EE85FF8534
:100BC0002083188EEC89FD891083EA89FB89808156
:100BD00080618083EA89FB89808188608083EA89DB
:100BE000FB89808180688083EA89FB8980818F7D91
:100BF0008083DF91CF911F91FF90EF90DF90CF9096
:100C000008951F920F920FB60F9211240BB60F92F8
:100C10002F938F939F93EF93FF93E091BE03F091F7
:100C2000BF038081E091C403F091C50382FD1DC024
:100C300090818091C7038F5F8F732091C8038217C3
:100C400041F0E091C703F0E0E255FC4F958F8093AF
:100C5000C703FF91EF919F918F912F910F900BBE42
:100C60000F900FBE0F901F9018958081F2CF1F92AA
:100C70000F920FB60F9211240BB60F922F933F9342
:100C80004F935F936F937F938F939F93AF93BF9394
:100C9000EF93FF938EEA93E00E941005FF91EF918E
:100CA000BF91AF919F918F917F916F915F914F9184
:100CB0003F912F910F900BBE0F900FBE0F901F9082
:100CC00018958EEA93E00E949E0421E0892B09F496
:100CD00020E0822F0895EEEAF3E01382128288EE7C
:100CE00093E0A0E0B0E084839583A683B78388E790
:100CF00093E09183808385EC90E09587848784ECF2
:100D000090E09787868780EC90E0918B808B81ECD8
:100D100090E0938B828B82EC90E0958B848B86ECB9
:100D200090E0978B868B118E128E138E148E089501
:100D3000AF92BF92CF92DF92EF92FF920F931F93E9
:100D4000CF93DF936C017B018B01040F151FEB0127
:100D50005E01AE18BF08C017D10759F06991D601DE
:100D6000ED91FC910190F081E02DC6011995892B40
:100D700079F7C501DF91CF911F910F91FF90EF900F
:100D8000DF90CF90BF90AF900895FB0101900020BD
:100D9000E9F73197AF01461B570BDC01ED91FC9150
:100DA0000280F381E02D19946115710511F00C9406
:100DB000C50690E080E00895DC01ED91FC91019082
:100DC000F081E02D199466E873E00C94C5060F934A
:100DD0001F93CF93DF938C01D0E0C0E061157105C4
:100DE00019F00E94C506EC01C8010E94E3068C0FB1
:100DF0009D1FDF91CF911F910F9108950F931F9326
:100E0000CF93DF93EC010E94DC068C01CE010E949F
:100E1000E306800F911FDF91CF911F910F910895ED
:100E20008F929F92AF92BF92EF92FF920F931F9378
:100E3000CF93DF93CDB7DEB7A1970FB6F894DEBF9F
:100E40000FBECDBF7C01FA01CB0119A2223008F4FC
:100E50002AE08E010F5D1F4F822E912CB12CA12C08
:100E6000BF01A50194010E947F08F901CA016A30FF
:100E70000CF5605DD8016E938D01232B242B252B5F
:100E800079F790E080E0109721F0BD01C7010E9442
:100E9000C506A1960FB6F894DEBF0FBECDBFDF9199
:100EA000CF911F910F91FF90EF90BF90AF909F90C7
:100EB0008F900895695CDECFCF92DF92EF92FF9220
:100EC0000F931F93CF93DF932115310581F4DC013C
:100ED000ED91FC910190F081E02D642FDF91CF9195
:100EE0001F910F91FF90EF90DF90CF9019942A30CF
:100EF000310501F52AE077FF1DC06A017B01EC0195
:100F00006DE20E94DC068C0144275527BA014C197A
:100F10005D096E097F092AE0CE010E941007800F4B
:100F2000911FDF91CF911F910F91FF90EF90DF9074
:100F3000CF900895DF91CF911F910F91FF90EF9087
:100F4000DF90CF900C9410079A01AB01770F660BDE
:100F5000770B0C945C070F931F93CF93DF93EC01F7
:100F60000E94A4078C01CE010E94E306800F911F0E
:100F7000DF91CF911F910F91089508950E941D0850
:100F80000E94BD070E94C000CBEDD4E00E94C900C2
:100F90002097E1F30E94DB04F9CF0C94A9080C948C
:100FA000A9080C9445091F920F920FB60F921124B5
:100FB0002F933F938F939F93AF93BF9380914C0454
:100FC00090914D04A0914E04B0914F0430914B0488
:100FD00023E0230F2D3758F50196A11DB11D209355
:100FE0004B0480934C0490934D04A0934E04B09313
:100FF0004F048091500490915104A0915204B091FB
:1010000053040196A11DB11D809350049093510487
:10101000A0935204B0935304BF91AF919F918F91CD
:101020003F912F910F900FBE0F901F90189526E8BB
:10103000230F0296A11DB11DD2CF789484B5826092
:1010400084BD84B5816084BD85B5826085BD85B56C
:10105000816085BDEEE6F0E0808181608083E1E81B
:10106000F0E0108280818260808380818160808353
:10107000E0E8F0E0808181608083E1EBF0E0808156
:1010800084608083E0EBF0E0808181608083E1E92F
:10109000F0E0808182608083808181608083E0E9EC
:1010A000F0E0808181608083E1EAF0E0808182600D
:1010B0008083808181608083E0EAF0E080818160CC
:1010C0008083E1E2F1E080818260808380818160C1
:1010D0008083E0E2F1E0808181608083EAE7F0E0F4
:1010E0008081846080838081826080838081816050
:1010F00080838081806880831092C1000895A1E27E
:101100001A2EAA1BBB1BFD010DC0AA1FBB1FEE1F81
:10111000FF1FA217B307E407F50720F0A21BB30BCC
:10112000E40BF50B661F771F881F991F1A9469F748
:1011300060957095809590959B01AC01BD01CF01A4
:101140000895EE0FFF1F881F8BBF0790F691E02DCB
:1011500019940F931F93CF93DF938230910510F46E
:1011600082E090E0E0915604F091570430E020E0F6
:10117000B0E0A0E0309799F42115310509F44AC098
:10118000281B390B24303105D8F58A819B816115E4
:10119000710589F1FB0193838283FE0111C04081B7
:1011A00051810281138148175907E0F04817590708
:1011B00099F4109761F012960C93129713961C9362
:1011C0003296CF01DF91CF911F910F910895009337
:1011D000560410935704F4CF2115310551F04217EE
:1011E000530738F0A901DB019A01BD01DF01F801C5
:1011F000C1CFEF01F9CF9093570480935604CDCF20
:10120000FE01E20FF31F819391932250310939833C
:101210002883D7CF2091540430915504232B41F4D7
:10122000209102023091030230935504209354041C
:1012300020910002309101022115310541F42DB7B2
:101240003EB74091040250910502241B350BE091FA
:101250005404F0915504E217F307A0F42E1B3F0B42
:101260002817390778F0AC014E5F5F4F2417350718
:1012700048F04E0F5F1F50935504409354048193E0
:1012800091939FCFF0E0E0E09CCFCF93DF93009766
:10129000E9F0FC01329713821282A0915604B091BA
:1012A0005704ED0130E020E01097A1F42081318156
:1012B000820F931F20915404309155042817390749
:1012C00009F061C0F0935504E0935404DF91CF918D
:1012D0000895EA01CE17DF07E8F54A815B819E0198
:1012E00041155105B1F7E901FB83EA834991599111
:1012F000C40FD51FEC17FD0761F480819181029620
:10130000840F951FE90199838883828193819B8350
:101310008A83F0E0E0E012968D919C9113970097FC
:10132000B9F52D913C911197CD010296820F931F33
:1013300020915404309155042817390739F6309715
:1013400051F51092570410925604B0935504A0938F
:101350005404BCCFD383C28340815181840F951F35
:10136000C817D90761F44E5F5F4F88819981480F94
:10137000591F518340838A819B81938382832115E6
:10138000310509F0B0CFF0935704E09356049ECF97
:10139000FD01DC01C0CF13821282D7CF10E0CCE870
:1013A000D0E000E006C0802FFE010E94A108219637
:1013B000011DCD38D10780E00807A9F7F894FFCFC9
:1013C000000058048000736F2E6172725B305D20E4
:1013D0002D3E0020736F2E6172725B315D202D3EB9
:1013E00000736F2E737472202D3E00736F2E666C27
:1013F000675B305D202D3E0020736F2E666C675B4F
:10140000315D202D3E0020736F2E666C675B325D70
:10141000202D3E00574F4F4C5700574F414C57001F
:1014200057534F4C5700434F4F4C5700434F4F4C6F
:1014300043004D4F4F4C4D004D4F4F4C57004D4FBB
:101440004F4C5600574F4F4C5500574F4F4C4F0085
:101450004A4F4F4C41004A4F4F4C57004A4F414C66
:1014600057004A534F4C57004A4F4F4C43004A4F86
:101470004F4C4D004A4F4F4C56004A4F4F4C550071
:101480004A4F4F4C4F00574F4F4C41003031323391
:101490003435363738390044726F70206379636CA5
:1014A00065732D3E2000206172725B695D2D3E20C8
:1014B00000416363657074206379636C65732D3ECE
:1014C000200069202D3E2000526573706F6E736599
:1014D000202D3E2000446967697473206F6E0044BC
:1014E0006967697473206F66660052656164206F76
:1014F0006E202D3E200074656D702D3E20007374AB
:1015000072206F6E2B2B202D3E20005265616420CF
:10151000737472202D3E2000456E64206F66207229
:10152000656164207374722D3E2000696E7075745D
:101530002D3E20000000000052059806CC04320524
:0A1540009E04B804AA040D0A00007E
:00000001FF
